{
  "_format": "hh3-artifact-1",
  "contractName": "CertVerify",
  "sourceName": "contracts/verify.sol",
  "abi": [
    {
      "inputs": [
        {
          "internalType": "uint256",
          "name": "",
          "type": "uint256"
        }
      ],
      "name": "Certs",
      "outputs": [
        {
          "internalType": "string",
          "name": "cID",
          "type": "string"
        },
        {
          "internalType": "bytes32",
          "name": "fhash",
          "type": "bytes32"
        }
      ],
      "stateMutability": "view",
      "type": "function"
    },
    {
      "inputs": [
        {
          "internalType": "uint256",
          "name": "sId",
          "type": "uint256"
        },
        {
          "internalType": "string",
          "name": "cID",
          "type": "string"
        },
        {
          "internalType": "bytes32",
          "name": "_fhash",
          "type": "bytes32"
        }
      ],
      "name": "storeCredentials",
      "outputs": [],
      "stateMutability": "nonpayable",
      "type": "function"
    }
  ],
  "bytecode": "0x6080604052348015600e575f5ffd5b506103fb8061001c5f395ff3fe608060405234801561000f575f5ffd5b5060043610610034575f3560e01c8063a5fb088614610038578063b9213ff514610062575b5f5ffd5b61004b610046366004610159565b610077565b604051610059929190610170565b60405180910390f35b6100756100703660046101c0565b610118565b005b5f6020819052908152604090208054819061009190610286565b80601f01602080910402602001604051908101604052809291908181526020018280546100bd90610286565b80156101085780601f106100df57610100808354040283529160200191610108565b820191905f5260205f20905b8154815290600101906020018083116100eb57829003601f168201915b5050505050908060010154905082565b60408051808201825283815260208082018490525f868152908190529190912081518190610146908261030a565b5060208201518160010155905050505050565b5f60208284031215610169575f5ffd5b5035919050565b604081525f83518060408401528060208601606085015e5f606082850101526060601f19601f8301168401019150508260208301529392505050565b634e487b7160e01b5f52604160045260245ffd5b5f5f5f606084860312156101d2575f5ffd5b83359250602084013567ffffffffffffffff8111156101ef575f5ffd5b8401601f810186136101ff575f5ffd5b803567ffffffffffffffff811115610219576102196101ac565b604051601f8201601f19908116603f0116810167ffffffffffffffff81118282101715610248576102486101ac565b60405281815282820160200188101561025f575f5ffd5b816020840160208301375f9181016020019190915293969395505050506040919091013590565b600181811c9082168061029a57607f821691505b6020821081036102b857634e487b7160e01b5f52602260045260245ffd5b50919050565b601f82111561030557805f5260205f20601f840160051c810160208510156102e35750805b601f840160051c820191505b81811015610302575f81556001016102ef565b50505b505050565b815167ffffffffffffffff811115610324576103246101ac565b610338816103328454610286565b846102be565b6020601f82116001811461036a575f83156103535750848201515b5f19600385901b1c1916600184901b178455610302565b5f84815260208120601f198516915b828110156103995787850151825560209485019460019092019101610379565b50848210156103b657868401515f19600387901b60f8161c191681555b50505050600190811b0190555056fea26469706673582212206a1335037efa760f0e7b28fc80f23275412e965d64c8b33541996ac54f812ea364736f6c634300081e0033",
  "linkReferences": {},
  "deployedLinkReferences": {},
  "immutableReferences": {},
  "inputSourceName": "project/contracts/verify.sol",
  "buildInfoId": "solc-0_8_30-3bbbf3509c487097d99f145cf6d56a8a02d03ce4"
}